:100000000EC01DC01CC01BC01AC01AC018C017C02B
:1000100016C015C014C013C012C011C010C01124E6
:100020001FBECFE5D2E0DEBFCDBF20E0A0E6B0E04E
:1000300001C01D92A537B207E1F726D05FC0E0CF1F
:100040001F920F920FB60F9211248F939F9380915E
:100050006000909161008D39910560F40196909354
:100060006100809360009F918F910F900FBE0F9061
:100070001F90189580917400816080937400109295
:10008000610010926000EFCF109264001092650042
:100090001092660010926700109263001092620046
:1000A00080E890E0909369008093680010926B0064
:1000B00010926A0010926D0010926C008EEF90E02A
:1000C00090936F0080936E008FEF9FEFAFEFBFE3D1
:1000D0008093700090937100A0937200B0937300AE
:1000E00081E08ABD82E089BF12BE7894809174005D
:1000F00080FFFFCF8E7F80937400F8CFF894FFCFFE
:00000001FF
